{
	"_format": "hh-sol-artifact-1",
	"contractName": "Escrow",
	"sourceName": "contracts/Escrow.sol",
	"abi": [
		{
			"inputs": [],
			"stateMutability": "nonpayable",
			"type": "constructor"
		},
		{
			"anonymous": false,
			"inputs": [
				{
					"indexed": true,
					"internalType": "uint256",
					"name": "id",
					"type": "uint256"
				},
				{
					"indexed": true,
					"internalType": "address",
					"name": "assignor",
					"type": "address"
				},
				{
					"indexed": true,
					"internalType": "address",
					"name": "assignee",
					"type": "address"
				}
			],
			"name": "ContractAccepted",
			"type": "event"
		},
		{
			"anonymous": false,
			"inputs": [
				{
					"indexed": true,
					"internalType": "uint256",
					"name": "id",
					"type": "uint256"
				},
				{
					"indexed": true,
					"internalType": "address",
					"name": "assignor",
					"type": "address"
				},
				{
					"indexed": true,
					"internalType": "address",
					"name": "assignee",
					"type": "address"
				}
			],
			"name": "ContractCancelled",
			"type": "event"
		},
		{
			"anonymous": false,
			"inputs": [
				{
					"indexed": true,
					"internalType": "uint256",
					"name": "id",
					"type": "uint256"
				},
				{
					"indexed": true,
					"internalType": "address",
					"name": "assignor",
					"type": "address"
				},
				{
					"indexed": true,
					"internalType": "address",
					"name": "assignee",
					"type": "address"
				}
			],
			"name": "ContractCompleted",
			"type": "event"
		},
		{
			"anonymous": false,
			"inputs": [
				{
					"indexed": true,
					"internalType": "uint256",
					"name": "id",
					"type": "uint256"
				},
				{
					"indexed": true,
					"internalType": "address",
					"name": "assignor",
					"type": "address"
				},
				{
					"indexed": true,
					"internalType": "address",
					"name": "assignee",
					"type": "address"
				}
			],
			"name": "ContractCreated",
			"type": "event"
		},
		{
			"anonymous": false,
			"inputs": [
				{
					"indexed": true,
					"internalType": "uint256",
					"name": "id",
					"type": "uint256"
				},
				{
					"indexed": true,
					"internalType": "address",
					"name": "assignor",
					"type": "address"
				},
				{
					"indexed": true,
					"internalType": "address",
					"name": "assignee",
					"type": "address"
				}
			],
			"name": "ContractEnded",
			"type": "event"
		},
		{
			"anonymous": false,
			"inputs": [
				{
					"indexed": true,
					"internalType": "uint256",
					"name": "id",
					"type": "uint256"
				},
				{
					"indexed": true,
					"internalType": "address",
					"name": "assignor",
					"type": "address"
				},
				{
					"indexed": true,
					"internalType": "address",
					"name": "assignee",
					"type": "address"
				}
			],
			"name": "ContractStarted",
			"type": "event"
		},
		{
			"inputs": [
				{
					"internalType": "uint256",
					"name": "_id",
					"type": "uint256"
				}
			],
			"name": "acceptContract",
			"outputs": [
				{
					"internalType": "bool",
					"name": "",
					"type": "bool"
				}
			],
			"stateMutability": "nonpayable",
			"type": "function"
		},
		{
			"inputs": [
				{
					"internalType": "uint256",
					"name": "_id",
					"type": "uint256"
				}
			],
			"name": "approveContract",
			"outputs": [
				{
					"internalType": "bool",
					"name": "",
					"type": "bool"
				}
			],
			"stateMutability": "nonpayable",
			"type": "function"
		},
		{
			"inputs": [
				{
					"internalType": "uint256",
					"name": "_id",
					"type": "uint256"
				}
			],
			"name": "cancelContract",
			"outputs": [
				{
					"internalType": "bool",
					"name": "",
					"type": "bool"
				}
			],
			"stateMutability": "nonpayable",
			"type": "function"
		},
		{
			"inputs": [
				{
					"internalType": "address",
					"name": "_newOwner",
					"type": "address"
				}
			],
			"name": "changeOwner",
			"outputs": [],
			"stateMutability": "nonpayable",
			"type": "function"
		},
		{
			"inputs": [],
			"name": "companyProfit",
			"outputs": [
				{
					"internalType": "uint256",
					"name": "",
					"type": "uint256"
				}
			],
			"stateMutability": "view",
			"type": "function"
		},
		{
			"inputs": [
				{
					"internalType": "uint256",
					"name": "_id",
					"type": "uint256"
				}
			],
			"name": "completeContract",
			"outputs": [
				{
					"internalType": "bool",
					"name": "",
					"type": "bool"
				}
			],
			"stateMutability": "nonpayable",
			"type": "function"
		},
		{
			"inputs": [
				{
					"internalType": "address",
					"name": "_assignee",
					"type": "address"
				},
				{
					"internalType": "uint256",
					"name": "_amount",
					"type": "uint256"
				},
				{
					"internalType": "string",
					"name": "_details",
					"type": "string"
				},
				{
					"internalType": "string",
					"name": "_title",
					"type": "string"
				}
			],
			"name": "createContract",
			"outputs": [
				{
					"internalType": "bool",
					"name": "",
					"type": "bool"
				}
			],
			"stateMutability": "nonpayable",
			"type": "function"
		},
		{
			"inputs": [
				{
					"internalType": "uint256",
					"name": "",
					"type": "uint256"
				}
			],
			"name": "escrows",
			"outputs": [
				{
					"internalType": "uint256",
					"name": "id",
					"type": "uint256"
				},
				{
					"internalType": "address",
					"name": "assignor",
					"type": "address"
				},
				{
					"internalType": "address",
					"name": "assignee",
					"type": "address"
				},
				{
					"internalType": "uint256",
					"name": "amount",
					"type": "uint256"
				},
				{
					"internalType": "string",
					"name": "details",
					"type": "string"
				},
				{
					"internalType": "string",
					"name": "title",
					"type": "string"
				},
				{
					"internalType": "bool",
					"name": "accepted",
					"type": "bool"
				},
				{
					"internalType": "bool",
					"name": "started",
					"type": "bool"
				},
				{
					"internalType": "bool",
					"name": "completed",
					"type": "bool"
				},
				{
					"internalType": "bool",
					"name": "approved",
					"type": "bool"
				},
				{
					"internalType": "bool",
					"name": "cancelled",
					"type": "bool"
				},
				{
					"internalType": "bool",
					"name": "funded",
					"type": "bool"
				}
			],
			"stateMutability": "view",
			"type": "function"
		},
		{
			"inputs": [],
			"name": "getMyAssignedContractAssignor",
			"outputs": [
				{
					"components": [
						{
							"internalType": "uint256",
							"name": "id",
							"type": "uint256"
						},
						{
							"internalType": "address",
							"name": "assignor",
							"type": "address"
						},
						{
							"internalType": "address",
							"name": "assignee",
							"type": "address"
						},
						{
							"internalType": "uint256",
							"name": "amount",
							"type": "uint256"
						},
						{
							"internalType": "string",
							"name": "details",
							"type": "string"
						},
						{
							"internalType": "string",
							"name": "title",
							"type": "string"
						},
						{
							"internalType": "bool",
							"name": "accepted",
							"type": "bool"
						},
						{
							"internalType": "bool",
							"name": "started",
							"type": "bool"
						},
						{
							"internalType": "bool",
							"name": "completed",
							"type": "bool"
						},
						{
							"internalType": "bool",
							"name": "approved",
							"type": "bool"
						},
						{
							"internalType": "bool",
							"name": "cancelled",
							"type": "bool"
						},
						{
							"internalType": "bool",
							"name": "funded",
							"type": "bool"
						}
					],
					"internalType": "struct Escrow.Escrows[]",
					"name": "",
					"type": "tuple[]"
				}
			],
			"stateMutability": "view",
			"type": "function"
		},
		{
			"inputs": [],
			"name": "getMyAssignedContractsAssignee",
			"outputs": [
				{
					"components": [
						{
							"internalType": "uint256",
							"name": "id",
							"type": "uint256"
						},
						{
							"internalType": "address",
							"name": "assignor",
							"type": "address"
						},
						{
							"internalType": "address",
							"name": "assignee",
							"type": "address"
						},
						{
							"internalType": "uint256",
							"name": "amount",
							"type": "uint256"
						},
						{
							"internalType": "string",
							"name": "details",
							"type": "string"
						},
						{
							"internalType": "string",
							"name": "title",
							"type": "string"
						},
						{
							"internalType": "bool",
							"name": "accepted",
							"type": "bool"
						},
						{
							"internalType": "bool",
							"name": "started",
							"type": "bool"
						},
						{
							"internalType": "bool",
							"name": "completed",
							"type": "bool"
						},
						{
							"internalType": "bool",
							"name": "approved",
							"type": "bool"
						},
						{
							"internalType": "bool",
							"name": "cancelled",
							"type": "bool"
						},
						{
							"internalType": "bool",
							"name": "funded",
							"type": "bool"
						}
					],
					"internalType": "struct Escrow.Escrows[]",
					"name": "",
					"type": "tuple[]"
				}
			],
			"stateMutability": "view",
			"type": "function"
		},
		{
			"inputs": [],
			"name": "getMyContractsAssignee",
			"outputs": [
				{
					"components": [
						{
							"internalType": "uint256",
							"name": "id",
							"type": "uint256"
						},
						{
							"internalType": "address",
							"name": "assignor",
							"type": "address"
						},
						{
							"internalType": "address",
							"name": "assignee",
							"type": "address"
						},
						{
							"internalType": "uint256",
							"name": "amount",
							"type": "uint256"
						},
						{
							"internalType": "string",
							"name": "details",
							"type": "string"
						},
						{
							"internalType": "string",
							"name": "title",
							"type": "string"
						},
						{
							"internalType": "bool",
							"name": "accepted",
							"type": "bool"
						},
						{
							"internalType": "bool",
							"name": "started",
							"type": "bool"
						},
						{
							"internalType": "bool",
							"name": "completed",
							"type": "bool"
						},
						{
							"internalType": "bool",
							"name": "approved",
							"type": "bool"
						},
						{
							"internalType": "bool",
							"name": "cancelled",
							"type": "bool"
						},
						{
							"internalType": "bool",
							"name": "funded",
							"type": "bool"
						}
					],
					"internalType": "struct Escrow.Escrows[]",
					"name": "",
					"type": "tuple[]"
				}
			],
			"stateMutability": "view",
			"type": "function"
		},
		{
			"inputs": [],
			"name": "getMyContractsAssignor",
			"outputs": [
				{
					"components": [
						{
							"internalType": "uint256",
							"name": "id",
							"type": "uint256"
						},
						{
							"internalType": "address",
							"name": "assignor",
							"type": "address"
						},
						{
							"internalType": "address",
							"name": "assignee",
							"type": "address"
						},
						{
							"internalType": "uint256",
							"name": "amount",
							"type": "uint256"
						},
						{
							"internalType": "string",
							"name": "details",
							"type": "string"
						},
						{
							"internalType": "string",
							"name": "title",
							"type": "string"
						},
						{
							"internalType": "bool",
							"name": "accepted",
							"type": "bool"
						},
						{
							"internalType": "bool",
							"name": "started",
							"type": "bool"
						},
						{
							"internalType": "bool",
							"name": "completed",
							"type": "bool"
						},
						{
							"internalType": "bool",
							"name": "approved",
							"type": "bool"
						},
						{
							"internalType": "bool",
							"name": "cancelled",
							"type": "bool"
						},
						{
							"internalType": "bool",
							"name": "funded",
							"type": "bool"
						}
					],
					"internalType": "struct Escrow.Escrows[]",
					"name": "",
					"type": "tuple[]"
				}
			],
			"stateMutability": "view",
			"type": "function"
		},
		{
			"inputs": [],
			"name": "owner",
			"outputs": [
				{
					"internalType": "address",
					"name": "",
					"type": "address"
				}
			],
			"stateMutability": "view",
			"type": "function"
		},
		{
			"inputs": [
				{
					"internalType": "uint256",
					"name": "_id",
					"type": "uint256"
				}
			],
			"name": "startContract",
			"outputs": [
				{
					"internalType": "bool",
					"name": "",
					"type": "bool"
				}
			],
			"stateMutability": "payable",
			"type": "function"
		},
		{
			"inputs": [],
			"name": "totalEscrows",
			"outputs": [
				{
					"internalType": "uint256",
					"name": "",
					"type": "uint256"
				}
			],
			"stateMutability": "view",
			"type": "function"
		},
		{
			"inputs": [],
			"name": "withdrawCompleteCommission",
			"outputs": [],
			"stateMutability": "nonpayable",
			"type": "function"
		},
		{
			"inputs": [
				{
					"internalType": "uint256",
					"name": "_amount",
					"type": "uint256"
				}
			],
			"name": "withdrawProfit",
			"outputs": [],
			"stateMutability": "nonpayable",
			"type": "function"
		}
	],
	"bytecode": "0x608060405234801561001057600080fd5b50336000806101000a81548173ffffffffffffffffffffffffffffffffffffffff021916908373ffffffffffffffffffffffffffffffffffffffff160217905550613d33806100606000396000f3fe6080604052600436106100fe5760003560e01c806380e1f87011610095578063a6f9dae111610064578063a6f9dae114610383578063b5bba609146103ac578063d1fc7852146103d7578063d828769014610402578063d82a2bea14610419576100fe565b806380e1f870146102c057806381a219de146102eb5780638da5cb5b1461031b5780639a115c0414610346576100fe565b80632b4cd13f116100d15780632b4cd13f146101de57806358ee94cd1461021b57806362c35c011461025857806363ee7c8d14610295576100fe565b8063012f52ee1461010357806316c20cdd1461014b578063248367c21461017657806328047450146101a1575b600080fd5b34801561010f57600080fd5b5061012a60048036038101906101259190612cab565b610442565b6040516101429c9b9a99989796959493929190612dd3565b60405180910390f35b34801561015757600080fd5b50610160610640565b60405161016d91906130df565b60405180910390f35b34801561018257600080fd5b5061018b610a02565b60405161019891906130df565b60405180910390f35b3480156101ad57600080fd5b506101c860048036038101906101c39190612cab565b610dee565b6040516101d59190613101565b60405180910390f35b3480156101ea57600080fd5b506102056004803603810190610200919061327d565b6111ce565b6040516102129190613101565b60405180910390f35b34801561022757600080fd5b50610242600480360381019061023d9190612cab565b611545565b60405161024f9190613101565b60405180910390f35b34801561026457600080fd5b5061027f600480360381019061027a9190612cab565b61175b565b60405161028c9190613101565b60405180910390f35b3480156102a157600080fd5b506102aa611b45565b6040516102b7919061331c565b60405180910390f35b3480156102cc57600080fd5b506102d5611b4b565b6040516102e291906130df565b60405180910390f35b61030560048036038101906103009190612cab565b611f37565b6040516103129190613101565b60405180910390f35b34801561032757600080fd5b506103306121a6565b60405161033d9190613337565b60405180910390f35b34801561035257600080fd5b5061036d60048036038101906103689190612cab565b6121ca565b60405161037a9190613101565b60405180910390f35b34801561038f57600080fd5b506103aa60048036038101906103a59190613352565b612382565b005b3480156103b857600080fd5b506103c1612453565b6040516103ce919061331c565b60405180910390f35b3480156103e357600080fd5b506103ec612459565b6040516103f991906130df565b60405180910390f35b34801561040e57600080fd5b5061041761281b565b005b34801561042557600080fd5b50610440600480360381019061043b9190612cab565b6129c8565b005b60036020528060005260406000206000915090508060000154908060010160009054906101000a900473ffffffffffffffffffffffffffffffffffffffff16908060020160009054906101000a900473ffffffffffffffffffffffffffffffffffffffff16908060030154908060040180546104bd906133ae565b80601f01602080910402602001604051908101604052809291908181526020018280546104e9906133ae565b80156105365780601f1061050b57610100808354040283529160200191610536565b820191906000526020600020905b81548152906001019060200180831161051957829003601f168201915b50505050509080600501805461054b906133ae565b80601f0160208091040260200160405190810160405280929190818152602001828054610577906133ae565b80156105c45780601f10610599576101008083540402835291602001916105c4565b820191906000526020600020905b8154815290600101906020018083116105a757829003601f168201915b5050505050908060060160009054906101000a900460ff16908060060160019054906101000a900460ff16908060060160029054906101000a900460ff16908060060160039054906101000a900460ff16908060060160049054906101000a900460ff16908060060160059054906101000a900460ff1690508c565b6060600060015467ffffffffffffffff8111156106605761065f613152565b5b60405190808252806020026020018201604052801561069957816020015b610686612bc8565b81526020019060019003908161067e5790505b5090506000805b6001548110156109f9573373ffffffffffffffffffffffffffffffffffffffff166003600083815260200190815260200160002060010160009054906101000a900473ffffffffffffffffffffffffffffffffffffffff1673ffffffffffffffffffffffffffffffffffffffff16036109d7576003600082815260200190815260200160002060405180610180016040529081600082015481526020016001820160009054906101000a900473ffffffffffffffffffffffffffffffffffffffff1673ffffffffffffffffffffffffffffffffffffffff1673ffffffffffffffffffffffffffffffffffffffff1681526020016002820160009054906101000a900473ffffffffffffffffffffffffffffffffffffffff1673ffffffffffffffffffffffffffffffffffffffff1673ffffffffffffffffffffffffffffffffffffffff16815260200160038201548152602001600482018054610802906133ae565b80601f016020809104026020016040519081016040528092919081815260200182805461082e906133ae565b801561087b5780601f106108505761010080835404028352916020019161087b565b820191906000526020600020905b81548152906001019060200180831161085e57829003601f168201915b50505050508152602001600582018054610894906133ae565b80601f01602080910402602001604051908101604052809291908181526020018280546108c0906133ae565b801561090d5780601f106108e25761010080835404028352916020019161090d565b820191906000526020600020905b8154815290600101906020018083116108f057829003601f168201915b505050505081526020016006820160009054906101000a900460ff161515151581526020016006820160019054906101000a900460ff161515151581526020016006820160029054906101000a900460ff161515151581526020016006820160039054906101000a900460ff161515151581526020016006820160049054906101000a900460ff161515151581526020016006820160059054906101000a900460ff1615151515815250508383815181106109cb576109ca6133df565b5b60200260200101819052505b6001826109e4919061343d565b915080806109f190613471565b9150506106a0565b50819250505090565b6060600060015467ffffffffffffffff811115610a2257610a21613152565b5b604051908082528060200260200182016040528015610a5b57816020015b610a48612bc8565b815260200190600190039081610a405790505b5090506000805b600154811015610de5573373ffffffffffffffffffffffffffffffffffffffff166003600083815260200190815260200160002060020160009054906101000a900473ffffffffffffffffffffffffffffffffffffffff1673ffffffffffffffffffffffffffffffffffffffff1603610dc3576003600082815260200190815260200160002060060160019054906101000a900460ff1615610dc2576003600082815260200190815260200160002060405180610180016040529081600082015481526020016001820160009054906101000a900473ffffffffffffffffffffffffffffffffffffffff1673ffffffffffffffffffffffffffffffffffffffff1673ffffffffffffffffffffffffffffffffffffffff1681526020016002820160009054906101000a900473ffffffffffffffffffffffffffffffffffffffff1673ffffffffffffffffffffffffffffffffffffffff1673ffffffffffffffffffffffffffffffffffffffff16815260200160038201548152602001600482018054610bed906133ae565b80601f0160208091040260200160405190810160405280929190818152602001828054610c19906133ae565b8015610c665780601f10610c3b57610100808354040283529160200191610c66565b820191906000526020600020905b815481529060010190602001808311610c4957829003601f168201915b50505050508152602001600582018054610c7f906133ae565b80601f0160208091040260200160405190810160405280929190818152602001828054610cab906133ae565b8015610cf85780601f10610ccd57610100808354040283529160200191610cf8565b820191906000526020600020905b815481529060010190602001808311610cdb57829003601f168201915b505050505081526020016006820160009054906101000a900460ff161515151581526020016006820160019054906101000a900460ff161515151581526020016006820160029054906101000a900460ff161515151581526020016006820160039054906101000a900460ff161515151581526020016006820160049054906101000a900460ff161515151581526020016006820160059054906101000a900460ff161515151581525050838381518110610db657610db56133df565b5b60200260200101819052505b5b600182610dd0919061343d565b91508080610ddd90613471565b915050610a62565b50819250505090565b6000813373ffffffffffffffffffffffffffffffffffffffff166003600083815260200190815260200160002060010160009054906101000a900473ffffffffffffffffffffffffffffffffffffffff1673ffffffffffffffffffffffffffffffffffffffff1614610e95576040517f08c379a0000000000000000000000000000000000000000000000000000000008152600401610e8c9061352b565b60405180910390fd5b82600154811115610ea557600080fd5b60016003600086815260200190815260200160002060060160046101000a81548160ff02191690831515021790555060006003600086815260200190815260200160002060060160036101000a81548160ff02191690831515021790555060006003600086815260200190815260200160002060060160026101000a81548160ff02191690831515021790555060006003600086815260200190815260200160002060060160016101000a81548160ff02191690831515021790555060006003600086815260200190815260200160002060060160006101000a81548160ff02191690831515021790555060006003600086815260200190815260200160002060030154905060006064600283610fbc919061354b565b610fc691906135bc565b905060008183610fd691906135ed565b905081600254610fe6919061343d565b6002819055506003600088815260200190815260200160002060060160059054906101000a900460ff16156110f95760006003600089815260200190815260200160002060010160009054906101000a900473ffffffffffffffffffffffffffffffffffffffff1673ffffffffffffffffffffffffffffffffffffffff168260405161107190613652565b60006040518083038185875af1925050503d80600081146110ae576040519150601f19603f3d011682016040523d82523d6000602084013e6110b3565b606091505b50509050806110f7576040517f08c379a00000000000000000000000000000000000000000000000000000000081526004016110ee906136b3565b60405180910390fd5b505b6003600088815260200190815260200160002060020160009054906101000a900473ffffffffffffffffffffffffffffffffffffffff1673ffffffffffffffffffffffffffffffffffffffff166003600089815260200190815260200160002060010160009054906101000a900473ffffffffffffffffffffffffffffffffffffffff1673ffffffffffffffffffffffffffffffffffffffff16887f683bc5c048db63a19aca077ebaf602240dbaec371f0bc19856f49fc6c004e38d60405160405180910390a4600195505050505050919050565b60008073ffffffffffffffffffffffffffffffffffffffff168573ffffffffffffffffffffffffffffffffffffffff160361123e576040517f08c379a00000000000000000000000000000000000000000000000000000000081526004016112359061371f565b60405180910390fd5b60008411611281576040517f08c379a00000000000000000000000000000000000000000000000000000000081526004016112789061378b565b60405180910390fd5b600060405180610180016040528060015481526020013373ffffffffffffffffffffffffffffffffffffffff1681526020018773ffffffffffffffffffffffffffffffffffffffff168152602001868152602001858152602001848152602001600015158152602001600015158152602001600015158152602001600015158152602001600015158152602001600015158152509050806003600060015481526020019081526020016000206000820151816000015560208201518160010160006101000a81548173ffffffffffffffffffffffffffffffffffffffff021916908373ffffffffffffffffffffffffffffffffffffffff16021790555060408201518160020160006101000a81548173ffffffffffffffffffffffffffffffffffffffff021916908373ffffffffffffffffffffffffffffffffffffffff1602179055506060820151816003015560808201518160040190816113e49190613957565b5060a08201518160050190816113fa9190613957565b5060c08201518160060160006101000a81548160ff02191690831515021790555060e08201518160060160016101000a81548160ff0219169083151502179055506101008201518160060160026101000a81548160ff0219169083151502179055506101208201518160060160036101000a81548160ff0219169083151502179055506101408201518160060160046101000a81548160ff0219169083151502179055506101608201518160060160056101000a81548160ff0219169083151502179055509050508573ffffffffffffffffffffffffffffffffffffffff163373ffffffffffffffffffffffffffffffffffffffff166001547f56560a52c047ed21fd801bf0f345b23d9af696f7922ff8e63101af5d48caddab60405160405180910390a46001806000828254611531919061343d565b925050819055506001915050949350505050565b6000813373ffffffffffffffffffffffffffffffffffffffff166003600083815260200190815260200160002060020160009054906101000a900473ffffffffffffffffffffffffffffffffffffffff1673ffffffffffffffffffffffffffffffffffffffff16146115ec576040517f08c379a00000000000000000000000000000000000000000000000000000000081526004016115e39061352b565b60405180910390fd5b826001548111156115fc57600080fd5b60016003600086815260200190815260200160002060060160026101000a81548160ff02191690831515021790555060006003600086815260200190815260200160002060060160016101000a81548160ff02191690831515021790555060006003600086815260200190815260200160002060060160006101000a81548160ff0219169083151502179055506003600085815260200190815260200160002060020160009054906101000a900473ffffffffffffffffffffffffffffffffffffffff1673ffffffffffffffffffffffffffffffffffffffff166003600086815260200190815260200160002060010160009054906101000a900473ffffffffffffffffffffffffffffffffffffffff1673ffffffffffffffffffffffffffffffffffffffff16857f6774e7512d62e65e414b9cc15969c36e32d465194057d4632ffd958e5182147160405160405180910390a4600192505050919050565b6000813373ffffffffffffffffffffffffffffffffffffffff166003600083815260200190815260200160002060010160009054906101000a900473ffffffffffffffffffffffffffffffffffffffff1673ffffffffffffffffffffffffffffffffffffffff1614611802576040517f08c379a00000000000000000000000000000000000000000000000000000000081526004016117f99061352b565b60405180910390fd5b8260015481111561181257600080fd5b6003600085815260200190815260200160002060060160029054906101000a900460ff16611875576040517f08c379a000000000000000000000000000000000000000000000000000000000815260040161186c90613a75565b60405180910390fd5b600060036000868152602001908152602001600020600301549050600060646002836118a1919061354b565b6118ab91906135bc565b9050600081836118bb91906135ed565b9050816002546118cb919061343d565b60028190555060006003600089815260200190815260200160002060020160009054906101000a900473ffffffffffffffffffffffffffffffffffffffff1673ffffffffffffffffffffffffffffffffffffffff168260405161192d90613652565b60006040518083038185875af1925050503d806000811461196a576040519150601f19603f3d011682016040523d82523d6000602084013e61196f565b606091505b50509050806119b3576040517f08c379a00000000000000000000000000000000000000000000000000000000081526004016119aa90613ae1565b60405180910390fd5b6001600360008a815260200190815260200160002060060160036101000a81548160ff0219169083151502179055506000600360008a815260200190815260200160002060060160026101000a81548160ff0219169083151502179055506000600360008a815260200190815260200160002060060160016101000a81548160ff0219169083151502179055506000600360008a815260200190815260200160002060060160006101000a81548160ff0219169083151502179055506003600089815260200190815260200160002060020160009054906101000a900473ffffffffffffffffffffffffffffffffffffffff1673ffffffffffffffffffffffffffffffffffffffff16600360008a815260200190815260200160002060010160009054906101000a900473ffffffffffffffffffffffffffffffffffffffff1673ffffffffffffffffffffffffffffffffffffffff16897f94e224b06102dbac09bbe25b9727b78a711606f76142988ac62cec156098062760405160405180910390a460019650505050505050919050565b60015481565b6060600060015467ffffffffffffffff811115611b6b57611b6a613152565b5b604051908082528060200260200182016040528015611ba457816020015b611b91612bc8565b815260200190600190039081611b895790505b5090506000805b600154811015611f2e573373ffffffffffffffffffffffffffffffffffffffff166003600083815260200190815260200160002060010160009054906101000a900473ffffffffffffffffffffffffffffffffffffffff1673ffffffffffffffffffffffffffffffffffffffff1603611f0c576003600082815260200190815260200160002060060160019054906101000a900460ff1615611f0b576003600082815260200190815260200160002060405180610180016040529081600082015481526020016001820160009054906101000a900473ffffffffffffffffffffffffffffffffffffffff1673ffffffffffffffffffffffffffffffffffffffff1673ffffffffffffffffffffffffffffffffffffffff1681526020016002820160009054906101000a900473ffffffffffffffffffffffffffffffffffffffff1673ffffffffffffffffffffffffffffffffffffffff1673ffffffffffffffffffffffffffffffffffffffff16815260200160038201548152602001600482018054611d36906133ae565b80601f0160208091040260200160405190810160405280929190818152602001828054611d62906133ae565b8015611daf5780601f10611d8457610100808354040283529160200191611daf565b820191906000526020600020905b815481529060010190602001808311611d9257829003601f168201915b50505050508152602001600582018054611dc8906133ae565b80601f0160208091040260200160405190810160405280929190818152602001828054611df4906133ae565b8015611e415780601f10611e1657610100808354040283529160200191611e41565b820191906000526020600020905b815481529060010190602001808311611e2457829003601f168201915b505050505081526020016006820160009054906101000a900460ff161515151581526020016006820160019054906101000a900460ff161515151581526020016006820160029054906101000a900460ff161515151581526020016006820160039054906101000a900460ff161515151581526020016006820160049054906101000a900460ff161515151581526020016006820160059054906101000a900460ff161515151581525050838381518110611eff57611efe6133df565b5b60200260200101819052505b5b600182611f19919061343d565b91508080611f2690613471565b915050611bab565b50819250505090565b6000813373ffffffffffffffffffffffffffffffffffffffff166003600083815260200190815260200160002060010160009054906101000a900473ffffffffffffffffffffffffffffffffffffffff1673ffffffffffffffffffffffffffffffffffffffff1614611fde576040517f08c379a0000000000000000000000000000000000000000000000000000000008152600401611fd59061352b565b60405180910390fd5b82600154811115611fee57600080fd5b6003600085815260200190815260200160002060030154341015612047576040517f08c379a000000000000000000000000000000000000000000000000000000000815260040161203e90613b4d565b60405180910390fd5b60016003600086815260200190815260200160002060060160016101000a81548160ff02191690831515021790555060016003600086815260200190815260200160002060060160056101000a81548160ff02191690831515021790555060006003600086815260200190815260200160002060060160006101000a81548160ff0219169083151502179055506003600085815260200190815260200160002060020160009054906101000a900473ffffffffffffffffffffffffffffffffffffffff1673ffffffffffffffffffffffffffffffffffffffff166003600086815260200190815260200160002060010160009054906101000a900473ffffffffffffffffffffffffffffffffffffffff1673ffffffffffffffffffffffffffffffffffffffff16857fcdcf2958019899a20502bfb842d89e53963ae5664a66a9da3658049046563c9960405160405180910390a4600192505050919050565b60008054906101000a900473ffffffffffffffffffffffffffffffffffffffff1681565b6000813373ffffffffffffffffffffffffffffffffffffffff166003600083815260200190815260200160002060020160009054906101000a900473ffffffffffffffffffffffffffffffffffffffff1673ffffffffffffffffffffffffffffffffffffffff1614612271576040517f08c379a00000000000000000000000000000000000000000000000000000000081526004016122689061352b565b60405180910390fd5b8260015481111561228157600080fd5b60016003600086815260200190815260200160002060060160006101000a81548160ff0219169083151502179055506003600085815260200190815260200160002060020160009054906101000a900473ffffffffffffffffffffffffffffffffffffffff1673ffffffffffffffffffffffffffffffffffffffff166003600086815260200190815260200160002060010160009054906101000a900473ffffffffffffffffffffffffffffffffffffffff1673ffffffffffffffffffffffffffffffffffffffff16857f4e5adb6e5811e4671a3b0bdaceb025ec957432fc5562c7caefc0442dd9270ff260405160405180910390a4600192505050919050565b60008054906101000a900473ffffffffffffffffffffffffffffffffffffffff1673ffffffffffffffffffffffffffffffffffffffff163373ffffffffffffffffffffffffffffffffffffffff1614612410576040517f08c379a000000000000000000000000000000000000000000000000000000000815260040161240790613bdf565b60405180910390fd5b806000806101000a81548173ffffffffffffffffffffffffffffffffffffffff021916908373ffffffffffffffffffffffffffffffffffffffff16021790555050565b60025481565b6060600060015467ffffffffffffffff81111561247957612478613152565b5b6040519080825280602002602001820160405280156124b257816020015b61249f612bc8565b8152602001906001900390816124975790505b5090506000805b600154811015612812573373ffffffffffffffffffffffffffffffffffffffff166003600083815260200190815260200160002060020160009054906101000a900473ffffffffffffffffffffffffffffffffffffffff1673ffffffffffffffffffffffffffffffffffffffff16036127f0576003600082815260200190815260200160002060405180610180016040529081600082015481526020016001820160009054906101000a900473ffffffffffffffffffffffffffffffffffffffff1673ffffffffffffffffffffffffffffffffffffffff1673ffffffffffffffffffffffffffffffffffffffff1681526020016002820160009054906101000a900473ffffffffffffffffffffffffffffffffffffffff1673ffffffffffffffffffffffffffffffffffffffff1673ffffffffffffffffffffffffffffffffffffffff1681526020016003820154815260200160048201805461261b906133ae565b80601f0160208091040260200160405190810160405280929190818152602001828054612647906133ae565b80156126945780601f1061266957610100808354040283529160200191612694565b820191906000526020600020905b81548152906001019060200180831161267757829003601f168201915b505050505081526020016005820180546126ad906133ae565b80601f01602080910402602001604051908101604052809291908181526020018280546126d9906133ae565b80156127265780601f106126fb57610100808354040283529160200191612726565b820191906000526020600020905b81548152906001019060200180831161270957829003601f168201915b505050505081526020016006820160009054906101000a900460ff161515151581526020016006820160019054906101000a900460ff161515151581526020016006820160029054906101000a900460ff161515151581526020016006820160039054906101000a900460ff161515151581526020016006820160049054906101000a900460ff161515151581526020016006820160059054906101000a900460ff1615151515815250508383815181106127e4576127e36133df565b5b60200260200101819052505b6001826127fd919061343d565b9150808061280a90613471565b9150506124b9565b50819250505090565b60008054906101000a900473ffffffffffffffffffffffffffffffffffffffff1673ffffffffffffffffffffffffffffffffffffffff163373ffffffffffffffffffffffffffffffffffffffff16146128a9576040517f08c379a00000000000000000000000000000000000000000000000000000000081526004016128a090613bdf565b60405180910390fd5b4760025411156128ee576040517f08c379a00000000000000000000000000000000000000000000000000000000081526004016128e590613c4b565b60405180910390fd5b60008060009054906101000a900473ffffffffffffffffffffffffffffffffffffffff1673ffffffffffffffffffffffffffffffffffffffff1660025460405161293790613652565b60006040518083038185875af1925050503d8060008114612974576040519150601f19603f3d011682016040523d82523d6000602084013e612979565b606091505b50509050806129bd576040517f08c379a00000000000000000000000000000000000000000000000000000000081526004016129b490613ae1565b60405180910390fd5b600060028190555050565b60008054906101000a900473ffffffffffffffffffffffffffffffffffffffff1673ffffffffffffffffffffffffffffffffffffffff163373ffffffffffffffffffffffffffffffffffffffff1614612a56576040517f08c379a0000000000000000000000000000000000000000000000000000000008152600401612a4d90613bdf565b60405180910390fd5b600254811115612a9b576040517f08c379a0000000000000000000000000000000000000000000000000000000008152600401612a9290613cdd565b60405180910390fd5b47811115612ade576040517f08c379a0000000000000000000000000000000000000000000000000000000008152600401612ad590613c4b565b60405180910390fd5b60008060009054906101000a900473ffffffffffffffffffffffffffffffffffffffff1673ffffffffffffffffffffffffffffffffffffffff1682604051612b2590613652565b60006040518083038185875af1925050503d8060008114612b62576040519150601f19603f3d011682016040523d82523d6000602084013e612b67565b606091505b5050905080612bab576040517f08c379a0000000000000000000000000000000000000000000000000000000008152600401612ba290613ae1565b60405180910390fd5b8160026000828254612bbd91906135ed565b925050819055505050565b60405180610180016040528060008152602001600073ffffffffffffffffffffffffffffffffffffffff168152602001600073ffffffffffffffffffffffffffffffffffffffff1681526020016000815260200160608152602001606081526020016000151581526020016000151581526020016000151581526020016000151581526020016000151581526020016000151581525090565b6000604051905090565b600080fd5b600080fd5b6000819050919050565b612c8881612c75565b8114612c9357600080fd5b50565b600081359050612ca581612c7f565b92915050565b600060208284031215612cc157612cc0612c6b565b5b6000612ccf84828501612c96565b91505092915050565b612ce181612c75565b82525050565b600073ffffffffffffffffffffffffffffffffffffffff82169050919050565b6000612d1282612ce7565b9050919050565b612d2281612d07565b82525050565b600081519050919050565b600082825260208201905092915050565b60005b83811015612d62578082015181840152602081019050612d47565b60008484015250505050565b6000601f19601f8301169050919050565b6000612d8a82612d28565b612d948185612d33565b9350612da4818560208601612d44565b612dad81612d6e565b840191505092915050565b60008115159050919050565b612dcd81612db8565b82525050565b600061018082019050612de9600083018f612cd8565b612df6602083018e612d19565b612e03604083018d612d19565b612e10606083018c612cd8565b8181036080830152612e22818b612d7f565b905081810360a0830152612e36818a612d7f565b9050612e4560c0830189612dc4565b612e5260e0830188612dc4565b612e60610100830187612dc4565b612e6e610120830186612dc4565b612e7c610140830185612dc4565b612e8a610160830184612dc4565b9d9c50505050505050505050505050565b600081519050919050565b600082825260208201905092915050565b6000819050602082019050919050565b612ed081612c75565b82525050565b612edf81612d07565b82525050565b600082825260208201905092915050565b6000612f0182612d28565b612f0b8185612ee5565b9350612f1b818560208601612d44565b612f2481612d6e565b840191505092915050565b612f3881612db8565b82525050565b600061018083016000830151612f576000860182612ec7565b506020830151612f6a6020860182612ed6565b506040830151612f7d6040860182612ed6565b506060830151612f906060860182612ec7565b5060808301518482036080860152612fa88282612ef6565b91505060a083015184820360a0860152612fc28282612ef6565b91505060c0830151612fd760c0860182612f2f565b5060e0830151612fea60e0860182612f2f565b50610100830151612fff610100860182612f2f565b50610120830151613014610120860182612f2f565b50610140830151613029610140860182612f2f565b5061016083015161303e610160860182612f2f565b508091505092915050565b60006130558383612f3e565b905092915050565b6000602082019050919050565b600061307582612e9b565b61307f8185612ea6565b93508360208202850161309185612eb7565b8060005b858110156130cd57848403895281516130ae8582613049565b94506130b98361305d565b925060208a01995050600181019050613095565b50829750879550505050505092915050565b600060208201905081810360008301526130f9818461306a565b905092915050565b60006020820190506131166000830184612dc4565b92915050565b61312581612d07565b811461313057600080fd5b50565b6000813590506131428161311c565b92915050565b600080fd5b600080fd5b7f4e487b7100000000000000000000000000000000000000000000000000000000600052604160045260246000fd5b61318a82612d6e565b810181811067ffffffffffffffff821117156131a9576131a8613152565b5b80604052505050565b60006131bc612c61565b90506131c88282613181565b919050565b600067ffffffffffffffff8211156131e8576131e7613152565b5b6131f182612d6e565b9050602081019050919050565b82818337600083830152505050565b600061322061321b846131cd565b6131b2565b90508281526020810184848401111561323c5761323b61314d565b5b6132478482856131fe565b509392505050565b600082601f83011261326457613263613148565b5b813561327484826020860161320d565b91505092915050565b6000806000806080858703121561329757613296612c6b565b5b60006132a587828801613133565b94505060206132b687828801612c96565b935050604085013567ffffffffffffffff8111156132d7576132d6612c70565b5b6132e38782880161324f565b925050606085013567ffffffffffffffff81111561330457613303612c70565b5b6133108782880161324f565b91505092959194509250565b60006020820190506133316000830184612cd8565b92915050565b600060208201905061334c6000830184612d19565b92915050565b60006020828403121561336857613367612c6b565b5b600061337684828501613133565b91505092915050565b7f4e487b7100000000000000000000000000000000000000000000000000000000600052602260045260246000fd5b600060028204905060018216806133c657607f821691505b6020821081036133d9576133d861337f565b5b50919050565b7f4e487b7100000000000000000000000000000000000000000000000000000000600052603260045260246000fd5b7f4e487b7100000000000000000000000000000000000000000000000000000000600052601160045260246000fd5b600061344882612c75565b915061345383612c75565b925082820190508082111561346b5761346a61340e565b5b92915050565b600061347c82612c75565b91507fffffffffffffffffffffffffffffffffffffffffffffffffffffffffffffffff82036134ae576134ad61340e565b5b600182019050919050565b7f596f7520617265206e6f742063726561746f72206f66207468697320636f6e7460008201527f7261637400000000000000000000000000000000000000000000000000000000602082015250565b6000613515602483612d33565b9150613520826134b9565b604082019050919050565b6000602082019050818103600083015261354481613508565b9050919050565b600061355682612c75565b915061356183612c75565b925082820261356f81612c75565b915082820484148315176135865761358561340e565b5b5092915050565b7f4e487b7100000000000000000000000000000000000000000000000000000000600052601260045260246000fd5b60006135c782612c75565b91506135d283612c75565b9250826135e2576135e161358d565b5b828204905092915050565b60006135f882612c75565b915061360383612c75565b925082820390508181111561361b5761361a61340e565b5b92915050565b600081905092915050565b50565b600061363c600083613621565b91506136478261362c565b600082019050919050565b600061365d8261362f565b9150819050919050565b7f416d6f756e74206e6f7420726566756e64656400000000000000000000000000600082015250565b600061369d601383612d33565b91506136a882613667565b602082019050919050565b600060208201905081810360008301526136cc81613690565b9050919050565b7f496e76616c69642061737369676e656520616464726573730000000000000000600082015250565b6000613709601883612d33565b9150613714826136d3565b602082019050919050565b60006020820190508181036000830152613738816136fc565b9050919050565b7f416d6f756e74206d7573742062652067726561746572207468616e207a65726f600082015250565b6000613775602083612d33565b91506137808261373f565b602082019050919050565b600060208201905081810360008301526137a481613768565b9050919050565b60008190508160005260206000209050919050565b60006020601f8301049050919050565b600082821b905092915050565b60006008830261380d7fffffffffffffffffffffffffffffffffffffffffffffffffffffffffffffffff826137d0565b61381786836137d0565b95508019841693508086168417925050509392505050565b6000819050919050565b600061385461384f61384a84612c75565b61382f565b612c75565b9050919050565b6000819050919050565b61386e83613839565b61388261387a8261385b565b8484546137dd565b825550505050565b600090565b61389761388a565b6138a2818484613865565b505050565b5b818110156138c6576138bb60008261388f565b6001810190506138a8565b5050565b601f82111561390b576138dc816137ab565b6138e5846137c0565b810160208510156138f4578190505b613908613900856137c0565b8301826138a7565b50505b505050565b600082821c905092915050565b600061392e60001984600802613910565b1980831691505092915050565b6000613947838361391d565b9150826002028217905092915050565b61396082612d28565b67ffffffffffffffff81111561397957613978613152565b5b61398382546133ae565b61398e8282856138ca565b600060209050601f8311600181146139c157600084156139af578287015190505b6139b9858261393b565b865550613a21565b601f1984166139cf866137ab565b60005b828110156139f7578489015182556001820191506020850194506020810190506139d2565b86831015613a145784890151613a10601f89168261391d565b8355505b6001600288020188555050505b505050505050565b7f436f6e7472616374206e6f7420636f6d706c6574656400000000000000000000600082015250565b6000613a5f601683612d33565b9150613a6a82613a29565b602082019050919050565b60006020820190508181036000830152613a8e81613a52565b9050919050565b7f416d6f756e74206e6f742073656e740000000000000000000000000000000000600082015250565b6000613acb600f83612d33565b9150613ad682613a95565b602082019050919050565b60006020820190508181036000830152613afa81613abe565b9050919050565b7f4e6f7420656e6f7567682066756e647300000000000000000000000000000000600082015250565b6000613b37601083612d33565b9150613b4282613b01565b602082019050919050565b60006020820190508181036000830152613b6681613b2a565b9050919050565b7f596f7520617265206e6f74206f776e6572206f66207468697320636f6e74726160008201527f6374000000000000000000000000000000000000000000000000000000000000602082015250565b6000613bc9602283612d33565b9150613bd482613b6d565b604082019050919050565b60006020820190508181036000830152613bf881613bbc565b9050919050565b7f46756e6473206e6f7420617661696c61626c6500000000000000000000000000600082015250565b6000613c35601383612d33565b9150613c4082613bff565b602082019050919050565b60006020820190508181036000830152613c6481613c28565b9050919050565b7f596f752063616e6e6f742077697468647261772066756e6473206d6f7265207460008201527f68616e20796f757220636f6d6d697373696f6e00000000000000000000000000602082015250565b6000613cc7603383612d33565b9150613cd282613c6b565b604082019050919050565b60006020820190508181036000830152613cf681613cba565b905091905056fea26469706673582212209c961475a0d4497f255bbb6cf7be4cafa6b79b71f155e4a782b62e67d406940a64736f6c63430008120033",
	"linkReferences": {},
	"deployedLinkReferences": {}
}